{
  "contractName": "MultiSender",
  "abi": [
    {
      "inputs": [],
      "stateMutability": "nonpayable",
      "type": "constructor"
    },
    {
      "anonymous": false,
      "inputs": [
        {
          "indexed": true,
          "internalType": "address",
          "name": "previousOwner",
          "type": "address"
        },
        {
          "indexed": true,
          "internalType": "address",
          "name": "newOwner",
          "type": "address"
        }
      ],
      "name": "OwnershipTransferred",
      "type": "event"
    },
    {
      "inputs": [
        {
          "internalType": "address",
          "name": "",
          "type": "address"
        }
      ],
      "name": "multiSendingInfo",
      "outputs": [
        {
          "internalType": "uint256",
          "name": "",
          "type": "uint256"
        }
      ],
      "stateMutability": "view",
      "type": "function"
    },
    {
      "inputs": [],
      "name": "owner",
      "outputs": [
        {
          "internalType": "address",
          "name": "",
          "type": "address"
        }
      ],
      "stateMutability": "view",
      "type": "function"
    },
    {
      "inputs": [],
      "name": "renounceOwnership",
      "outputs": [],
      "stateMutability": "nonpayable",
      "type": "function"
    },
    {
      "inputs": [],
      "name": "tokenAddressForDistribution",
      "outputs": [
        {
          "internalType": "address",
          "name": "",
          "type": "address"
        }
      ],
      "stateMutability": "view",
      "type": "function"
    },
    {
      "inputs": [],
      "name": "tokenInfo",
      "outputs": [
        {
          "internalType": "string",
          "name": "name",
          "type": "string"
        },
        {
          "internalType": "string",
          "name": "symbol",
          "type": "string"
        },
        {
          "internalType": "uint256",
          "name": "decimal",
          "type": "uint256"
        }
      ],
      "stateMutability": "view",
      "type": "function"
    },
    {
      "inputs": [
        {
          "internalType": "address",
          "name": "newOwner",
          "type": "address"
        }
      ],
      "name": "transferOwnership",
      "outputs": [],
      "stateMutability": "nonpayable",
      "type": "function"
    },
    {
      "inputs": [
        {
          "internalType": "address",
          "name": "tokenAddress_",
          "type": "address"
        },
        {
          "internalType": "address[]",
          "name": "receivers_",
          "type": "address[]"
        },
        {
          "internalType": "uint256[]",
          "name": "amounts_",
          "type": "uint256[]"
        }
      ],
      "name": "multiSendTokenFromContractAt",
      "outputs": [],
      "stateMutability": "nonpayable",
      "type": "function"
    },
    {
      "inputs": [
        {
          "internalType": "address",
          "name": "tokenAddress_",
          "type": "address"
        },
        {
          "internalType": "address[]",
          "name": "receivers_",
          "type": "address[]"
        },
        {
          "internalType": "uint256[]",
          "name": "amounts_",
          "type": "uint256[]"
        }
      ],
      "name": "multiSendTokensFromWalletAt",
      "outputs": [],
      "stateMutability": "nonpayable",
      "type": "function"
    },
    {
      "inputs": [
        {
          "internalType": "address",
          "name": "to_",
          "type": "address"
        },
        {
          "internalType": "uint256",
          "name": "amount_",
          "type": "uint256"
        }
      ],
      "name": "addReceiver",
      "outputs": [],
      "stateMutability": "nonpayable",
      "type": "function"
    },
    {
      "inputs": [
        {
          "internalType": "address[]",
          "name": "receivers_",
          "type": "address[]"
        },
        {
          "internalType": "uint256[]",
          "name": "amounts_",
          "type": "uint256[]"
        }
      ],
      "name": "addReceivers",
      "outputs": [],
      "stateMutability": "nonpayable",
      "type": "function"
    },
    {
      "inputs": [],
      "name": "initAddressList",
      "outputs": [],
      "stateMutability": "nonpayable",
      "type": "function"
    },
    {
      "inputs": [],
      "name": "distributeTokens",
      "outputs": [],
      "stateMutability": "nonpayable",
      "type": "function"
    },
    {
      "inputs": [
        {
          "internalType": "address",
          "name": "newAddress_",
          "type": "address"
        }
      ],
      "name": "setTokenForDistribution",
      "outputs": [],
      "stateMutability": "nonpayable",
      "type": "function"
    },
    {
      "inputs": [],
      "name": "getTokenSupplyForDistrubution",
      "outputs": [
        {
          "internalType": "uint256",
          "name": "",
          "type": "uint256"
        }
      ],
      "stateMutability": "view",
      "type": "function"
    },
    {
      "inputs": [],
      "name": "serviceFee",
      "outputs": [
        {
          "internalType": "uint256",
          "name": "",
          "type": "uint256"
        }
      ],
      "stateMutability": "view",
      "type": "function"
    },
    {
      "inputs": [
        {
          "internalType": "uint256",
          "name": "fee_",
          "type": "uint256"
        }
      ],
      "name": "setServiceFee",
      "outputs": [],
      "stateMutability": "nonpayable",
      "type": "function"
    },
    {
      "inputs": [
        {
          "internalType": "address",
          "name": "to_",
          "type": "address"
        }
      ],
      "name": "reClaimCoin",
      "outputs": [],
      "stateMutability": "nonpayable",
      "type": "function"
    },
    {
      "inputs": [
        {
          "internalType": "address",
          "name": "token_",
          "type": "address"
        },
        {
          "internalType": "address",
          "name": "to_",
          "type": "address"
        }
      ],
      "name": "reClaimToken",
      "outputs": [],
      "stateMutability": "nonpayable",
      "type": "function"
    }
  ],
  "bytecode": "0x60806040526703782dace9d9000060055534801561001c57600080fd5b506100263361002b565b61007b565b600080546001600160a01b038381166001600160a01b0319831681178455604051919092169283917f8be0079c531659141344cd1fd0a4f28419497f9722a3daafe3b4186f6b6457e09190a35050565b611ed38061008a6000396000f3fe608060405234801561001057600080fd5b50600436106101165760003560e01c80637f1bdeba116100a2578063a037873011610071578063a037873014610222578063d3f9f69014610235578063eb90d9f714610248578063f1223a5714610250578063f2fde38b1461026357600080fd5b80637f1bdeba146101ee5780638abdf5aa146102015780638da5cb5b146102095780639ab1b4841461021a57600080fd5b80635cdf76f8116100e95780635cdf76f8146101965780635f3ccdd9146101a95780636590cf7d146101bc5780636addb663146101cf578063715018a6146101e657600080fd5b80630796f2551461011b5780631d4822b91461014b5780634deee475146101605780635263b34814610168575b600080fd5b60015461012e906001600160a01b031681565b6040516001600160a01b0390911681526020015b60405180910390f35b61015e6101593660046117b2565b610276565b005b61015e610436565b6101886101763660046117e5565b60086020526000908152604090205481565b604051908152602001610142565b61015e6101a4366004611807565b610473565b61015e6101b7366004611820565b6104f9565b61015e6101ca366004611982565b6106b6565b6101d7610939565b60405161014293929190611a4e565b61015e610a5f565b61015e6101fc366004611982565b610a95565b600554610188565b6000546001600160a01b031661012e565b61015e610d62565b61015e610230366004611a84565b610e98565b61015e6102433660046117e5565b611079565b610188611102565b61015e61025e3660046117e5565b611174565b61015e6102713660046117e5565b611393565b6000546001600160a01b031633146102a95760405162461bcd60e51b81526004016102a090611ae8565b60405180910390fd5b6001600160a01b0381166102cf5760405162461bcd60e51b81526004016102a090611b1d565b6001600160a01b0382166102f55760405162461bcd60e51b81526004016102a090611b1d565b6001600160a01b03821630141561034e5760405162461bcd60e51b815260206004820152601a60248201527f4d756c746953656e6465723a2073656c6620776974686472617700000000000060448201526064016102a0565b6040516370a0823160e01b81523060048201526000906001600160a01b038416906370a0823190602401602060405180830381865afa158015610395573d6000803e3d6000fd5b505050506040513d601f19601f820116820180604052508101906103b99190611b63565b60405163a9059cbb60e01b81526001600160a01b038481166004830152602482018390529192509084169063a9059cbb906044016020604051808303816000875af115801561040c573d6000803e3d6000fd5b505050506040513d601f19601f820116820180604052508101906104309190611b7c565b50505050565b6000546001600160a01b031633146104605760405162461bcd60e51b81526004016102a090611ae8565b60068054610470916007916116bd565b50565b6000546001600160a01b0316331461049d5760405162461bcd60e51b81526004016102a090611ae8565b670de0b6b3a764000081106104f45760405162461bcd60e51b815260206004820152601760248201527f4d756c746953656e6465723a20546f6f2067726565647900000000000000000060448201526064016102a0565b600555565b6000546001600160a01b031633146105235760405162461bcd60e51b81526004016102a090611ae8565b6001600160a01b0382166105895760405162461bcd60e51b815260206004820152602760248201527f4d756c746953656e6465723a2043616e27742073656e6420746f207a65726f206044820152666164647265737360c81b60648201526084016102a0565b6001600160a01b0382163014156105f25760405162461bcd60e51b815260206004820152602760248201527f4d756c746953656e6465723a2043616e27742073656e6420746f2073656c66206044820152666164647265737360c81b60648201526084016102a0565b6000811161065a5760405162461bcd60e51b815260206004820152602f60248201527f4d756c746953656e6465723a20416d6f756e742073686f756c6420626520677260448201526e6561746572207468616e207a65726f60881b60648201526084016102a0565b60078054600181019091557fa66cc928b5edb82af9bd49922954155ab7b0942694bea4ce44661d9a8736c6880180546001600160a01b039093166001600160a01b03199093168317905560009182526008602052604090912055565b6000546001600160a01b031633146106e05760405162461bcd60e51b81526004016102a090611ae8565b6001600160a01b0383166107065760405162461bcd60e51b81526004016102a090611b9e565b6001600160a01b03831630141561072f5760405162461bcd60e51b81526004016102a090611be8565b6040516370a0823160e01b81523060048201526000906001600160a01b038516906370a0823190602401602060405180830381865afa158015610776573d6000803e3d6000fd5b505050506040513d601f19601f8201168201806040525081019061079a9190611b63565b116107b75760405162461bcd60e51b81526004016102a090611c2e565b60008251116107d85760405162461bcd60e51b81526004016102a090611c76565b80518251146107f95760405162461bcd60e51b81526004016102a090611cd3565b6000805b835181101561083f5782818151811061081857610818611d30565b60200260200101518261082b9190611d5c565b91508061083781611d74565b9150506107fd565b506040516370a0823160e01b815230600482015281906001600160a01b038616906370a0823190602401602060405180830381865afa158015610886573d6000803e3d6000fd5b505050506040513d601f19601f820116820180604052508101906108aa9190611b63565b10156108c85760405162461bcd60e51b81526004016102a090611c2e565b60005b8351811015610932576001548451610920916001600160a01b0316908690849081106108f9576108f9611d30565b602002602001015185848151811061091357610913611d30565b602002602001015161142b565b8061092a81611d74565b9150506108cb565b5050505050565b60028054819061094890611d8f565b80601f016020809104026020016040519081016040528092919081815260200182805461097490611d8f565b80156109c15780601f10610996576101008083540402835291602001916109c1565b820191906000526020600020905b8154815290600101906020018083116109a457829003601f168201915b5050505050908060010180546109d690611d8f565b80601f0160208091040260200160405190810160405280929190818152602001828054610a0290611d8f565b8015610a4f5780601f10610a2457610100808354040283529160200191610a4f565b820191906000526020600020905b815481529060010190602001808311610a3257829003601f168201915b5050505050908060020154905083565b6000546001600160a01b03163314610a895760405162461bcd60e51b81526004016102a090611ae8565b610a93600061153f565b565b6005543411610af45760405162461bcd60e51b815260206004820152602560248201527f4d756c746953656e6465723a204d7573742070617920617070726f7072656174604482015264652066656560d81b60648201526084016102a0565b6001600160a01b038316610b1a5760405162461bcd60e51b81526004016102a090611b9e565b6001600160a01b038316301415610b435760405162461bcd60e51b81526004016102a090611be8565b60006001600160a01b0384166370a08231336040516001600160e01b031960e084901b1681526001600160a01b039091166004820152602401602060405180830381865afa158015610b99573d6000803e3d6000fd5b505050506040513d601f19601f82011682018060405250810190610bbd9190611b63565b11610bda5760405162461bcd60e51b81526004016102a090611c2e565b6000825111610bfb5760405162461bcd60e51b81526004016102a090611c76565b8051825114610c1c5760405162461bcd60e51b81526004016102a090611cd3565b6000805b8351811015610c6257828181518110610c3b57610c3b611d30565b602002602001015182610c4e9190611d5c565b915080610c5a81611d74565b915050610c20565b50806001600160a01b0385166370a08231336040516001600160e01b031960e084901b1681526001600160a01b039091166004820152602401602060405180830381865afa158015610cb8573d6000803e3d6000fd5b505050506040513d601f19601f82011682018060405250810190610cdc9190611b63565b1015610cfa5760405162461bcd60e51b81526004016102a090611c2e565b60005b835181101561093257600154610d50906001600160a01b031633868481518110610d2957610d29611d30565b6020026020010151868581518110610d4357610d43611d30565b602002602001015161158f565b80610d5a81611d74565b915050610cfd565b6000546001600160a01b03163314610d8c5760405162461bcd60e51b81526004016102a090611ae8565b600754610df45760405162461bcd60e51b815260206004820152603060248201527f4d756c746953656e6465723a20446f6e2774206861766520616464726573736560448201526f7320746f2073656e6420746f6b656e7360801b60648201526084016102a0565b60005b6007548110156104705760015460078054610e86926001600160a01b0316919084908110610e2757610e27611d30565b9060005260206000200160009054906101000a90046001600160a01b03166008600060078681548110610e5c57610e5c611d30565b60009182526020808320909101546001600160a01b0316835282019290925260400190205461142b565b80610e9081611d74565b915050610df7565b6000546001600160a01b03163314610ec25760405162461bcd60e51b81526004016102a090611ae8565b6000825111610f315760405162461bcd60e51b815260206004820152603560248201527f4d756c746953656e6465723a2041646472657373206c6973742073686f756c646044820152742062652067726561746572207468616e207a65726f60581b60648201526084016102a0565b8051825114610fa85760405162461bcd60e51b815260206004820152603860248201527f4d756c746953656e6465723a204e65656420746f20686176652073616d65206c60448201527f656e677468206f6620746f7320616e6420616d6f756e7473000000000000000060648201526084016102a0565b60005b8251811015611074576007838281518110610fc857610fc8611d30565b60209081029190910181015182546001810184556000938452919092200180546001600160a01b0319166001600160a01b03909216919091179055815182908290811061101757611017611d30565b60200260200101516008600085848151811061103557611035611d30565b60200260200101516001600160a01b03166001600160a01b0316815260200190815260200160002081905550808061106c90611d74565b915050610fab565b505050565b6000546001600160a01b031633146110a35760405162461bcd60e51b81526004016102a090611ae8565b6001600160a01b0381166110c95760405162461bcd60e51b81526004016102a090611b1d565b6040516001600160a01b038216904780156108fc02916000818181858888f193505050501580156110fe573d6000803e3d6000fd5b5050565b6001546040516370a0823160e01b81523060048201526000916001600160a01b0316906370a0823190602401602060405180830381865afa15801561114b573d6000803e3d6000fd5b505050506040513d601f19601f8201168201806040525081019061116f9190611b63565b905090565b6000546001600160a01b0316331461119e5760405162461bcd60e51b81526004016102a090611ae8565b6001600160a01b0381166111c45760405162461bcd60e51b81526004016102a090611b9e565b6001600160a01b0381163014156111ed5760405162461bcd60e51b81526004016102a090611be8565b600180546001600160a01b0319166001600160a01b038316908117909155604080516306fdde0360e01b815290516306fdde03916004808201926000929091908290030181865afa158015611246573d6000803e3d6000fd5b505050506040513d6000823e601f3d908101601f1916820160405261126e9190810190611dca565b80516112829160029160209091019061170d565b50600160009054906101000a90046001600160a01b03166001600160a01b03166395d89b416040518163ffffffff1660e01b8152600401600060405180830381865afa1580156112d6573d6000803e3d6000fd5b505050506040513d6000823e601f3d908101601f191682016040526112fe9190810190611dca565b80516113129160039160209091019061170d565b50600160009054906101000a90046001600160a01b03166001600160a01b031663313ce5676040518163ffffffff1660e01b8152600401602060405180830381865afa158015611366573d6000803e3d6000fd5b505050506040513d601f19601f8201168201806040525081019061138a9190611e5e565b60ff1660045550565b6000546001600160a01b031633146113bd5760405162461bcd60e51b81526004016102a090611ae8565b6001600160a01b0381166114225760405162461bcd60e51b815260206004820152602660248201527f4f776e61626c653a206e6577206f776e657220697320746865207a65726f206160448201526564647265737360d01b60648201526084016102a0565b6104708161153f565b604080516001600160a01b038481166024830152604480830185905283518084039091018152606490920183526020820180516001600160e01b031663a9059cbb60e01b17905291516000928392908716916114879190611e81565b6000604051808303816000865af19150503d80600081146114c4576040519150601f19603f3d011682016040523d82523d6000602084013e6114c9565b606091505b50915091508180156114f35750805115806114f35750808060200190518101906114f39190611b7c565b6109325760405162461bcd60e51b815260206004820152601c60248201527f4d756c746953656e6465723a205452414e534645525f4641494c45440000000060448201526064016102a0565b600080546001600160a01b038381166001600160a01b0319831681178455604051919092169283917f8be0079c531659141344cd1fd0a4f28419497f9722a3daafe3b4186f6b6457e09190a35050565b604080516001600160a01b0385811660248301528481166044830152606480830185905283518084039091018152608490920183526020820180516001600160e01b03166323b872dd60e01b17905291516000928392908816916115f39190611e81565b6000604051808303816000865af19150503d8060008114611630576040519150601f19603f3d011682016040523d82523d6000602084013e611635565b606091505b509150915081801561165f57508051158061165f57508080602001905181019061165f9190611b7c565b6116b55760405162461bcd60e51b815260206004820152602160248201527f4d756c746953656e6465723a205452414e534645525f46524f4d5f4641494c456044820152601160fa1b60648201526084016102a0565b505050505050565b8280548282559060005260206000209081019282156116fd5760005260206000209182015b828111156116fd5782548255916001019190600101906116e2565b50611709929150611781565b5090565b82805461171990611d8f565b90600052602060002090601f01602090048101928261173b57600085556116fd565b82601f1061175457805160ff19168380011785556116fd565b828001600101855582156116fd579182015b828111156116fd578251825591602001919060010190611766565b5b808211156117095760008155600101611782565b80356001600160a01b03811681146117ad57600080fd5b919050565b600080604083850312156117c557600080fd5b6117ce83611796565b91506117dc60208401611796565b90509250929050565b6000602082840312156117f757600080fd5b61180082611796565b9392505050565b60006020828403121561181957600080fd5b5035919050565b6000806040838503121561183357600080fd5b61183c83611796565b946020939093013593505050565b634e487b7160e01b600052604160045260246000fd5b604051601f8201601f1916810167ffffffffffffffff811182821017156118895761188961184a565b604052919050565b600067ffffffffffffffff8211156118ab576118ab61184a565b5060051b60200190565b600082601f8301126118c657600080fd5b813560206118db6118d683611891565b611860565b82815260059290921b840181019181810190868411156118fa57600080fd5b8286015b8481101561191c5761190f81611796565b83529183019183016118fe565b509695505050505050565b600082601f83011261193857600080fd5b813560206119486118d683611891565b82815260059290921b8401810191818101908684111561196757600080fd5b8286015b8481101561191c578035835291830191830161196b565b60008060006060848603121561199757600080fd5b6119a084611796565b9250602084013567ffffffffffffffff808211156119bd57600080fd5b6119c9878388016118b5565b935060408601359150808211156119df57600080fd5b506119ec86828701611927565b9150509250925092565b60005b83811015611a115781810151838201526020016119f9565b838111156104305750506000910152565b60008151808452611a3a8160208601602086016119f6565b601f01601f19169290920160200192915050565b606081526000611a616060830186611a22565b8281036020840152611a738186611a22565b915050826040830152949350505050565b60008060408385031215611a9757600080fd5b823567ffffffffffffffff80821115611aaf57600080fd5b611abb868387016118b5565b93506020850135915080821115611ad157600080fd5b50611ade85828601611927565b9150509250929050565b6020808252818101527f4f776e61626c653a2063616c6c6572206973206e6f7420746865206f776e6572604082015260600190565b60208082526026908201527f4d756c746953656e6465723a20636c61696d20746f20746865207a65726f206160408201526564647265737360d01b606082015260800190565b600060208284031215611b7557600080fd5b5051919050565b600060208284031215611b8e57600080fd5b8151801515811461180057600080fd5b6020808252602a908201527f4d756c746953656e6465723a20416464726573732063616e2774206265207a65604082015269726f206164647265737360b01b606082015260800190565b60208082526026908201527f4d756c746953656e6465723a2043616e2774207365742061732073656c66206160408201526564647265737360d01b606082015260800190565b60208082526028908201527f4d756c746953656e6465723a20496e73756666696369656e7420746f6b656e73604082015267081d1bc81cd95b9960c21b606082015260800190565b60208082526038908201527f4d756c746953656e6465723a205265636569766572206c656e6774682073686f60408201527f756c642062652067726561746572207468616e207a65726f0000000000000000606082015260800190565b6020808252603d908201527f4d756c746953656e6465723a205265636569766572206c656e6774682073686f60408201527f756c642062652073616d6520617320616d6f756e7473206c656e677468000000606082015260800190565b634e487b7160e01b600052603260045260246000fd5b634e487b7160e01b600052601160045260246000fd5b60008219821115611d6f57611d6f611d46565b500190565b6000600019821415611d8857611d88611d46565b5060010190565b600181811c90821680611da357607f821691505b60208210811415611dc457634e487b7160e01b600052602260045260246000fd5b50919050565b600060208284031215611ddc57600080fd5b815167ffffffffffffffff80821115611df457600080fd5b818401915084601f830112611e0857600080fd5b815181811115611e1a57611e1a61184a565b611e2d601f8201601f1916602001611860565b9150808252856020828501011115611e4457600080fd5b611e558160208401602086016119f6565b50949350505050565b600060208284031215611e7057600080fd5b815160ff8116811461180057600080fd5b60008251611e938184602087016119f6565b919091019291505056fea26469706673582212209cb75051ab11826988373a6435f618ec405c2e9ca1c36ec9a675f6278aafbd7364736f6c634300080c0033",
  "immutableReferences": {},
  "source": "// SPDX-License-Identifier: MIT\r\n\r\npragma solidity ^0.8.11;\r\n\r\n/**\r\n *                 \r\n *            \r\n *                      \r\n *                     \r\n *         \r\n *                \r\n */\r\n\r\nlibrary Address {\r\n    /**\r\n     * @dev Returns true if `account` is a contract.\r\n     *\r\n     * [IMPORTANT]\r\n     * ====\r\n     * It is unsafe to assume that an address for which this function returns\r\n     * false is an externally-owned account (EOA) and not a contract.\r\n     *\r\n     * Among others, `isContract` will return false for the following\r\n     * types of addresses:\r\n     *\r\n     *  - an externally-owned account\r\n     *  - a contract in construction\r\n     *  - an address where a contract will be created\r\n     *  - an address where a contract lived, but was destroyed\r\n     * ====\r\n     *\r\n     * [IMPORTANT]\r\n     * ====\r\n     * You shouldn't rely on `isContract` to protect against flash loan attacks!\r\n     *\r\n     * Preventing calls from contracts is highly discouraged. It breaks composability, breaks support for smart wallets\r\n     * like Gnosis Safe, and does not provide security since it can be circumvented by calling from a contract\r\n     * constructor.\r\n     * ====\r\n     */\r\n    function isContract(address account) internal view returns (bool) {\r\n        // This method relies on extcodesize/address.code.length, which returns 0\r\n        // for contracts in construction, since the code is only stored at the end\r\n        // of the constructor execution.\r\n\r\n        return account.code.length > 0;\r\n    }\r\n\r\n    /**\r\n     * @dev Replacement for Solidity's `transfer`: sends `amount` wei to\r\n     * `recipient`, forwarding all available gas and reverting on errors.\r\n     *\r\n     * https://eips.ethereum.org/EIPS/eip-1884[EIP1884] increases the gas cost\r\n     * of certain opcodes, possibly making contracts go over the 2300 gas limit\r\n     * imposed by `transfer`, making them unable to receive funds via\r\n     * `transfer`. {sendValue} removes this limitation.\r\n     *\r\n     * https://diligence.consensys.net/posts/2019/09/stop-using-soliditys-transfer-now/[Learn more].\r\n     *\r\n     * IMPORTANT: because control is transferred to `recipient`, care must be\r\n     * taken to not create reentrancy vulnerabilities. Consider using\r\n     * {ReentrancyGuard} or the\r\n     * https://solidity.readthedocs.io/en/v0.5.11/security-considerations.html#use-the-checks-effects-interactions-pattern[checks-effects-interactions pattern].\r\n     */\r\n    function sendValue(address payable recipient, uint256 amount) internal {\r\n        require(address(this).balance >= amount, \"Address: insufficient balance\");\r\n\r\n        (bool success, ) = recipient.call{value: amount}(\"\");\r\n        require(success, \"Address: unable to send value, recipient may have reverted\");\r\n    }\r\n\r\n    /**\r\n     * @dev Performs a Solidity function call using a low level `call`. A\r\n     * plain `call` is an unsafe replacement for a function call: use this\r\n     * function instead.\r\n     *\r\n     * If `target` reverts with a revert reason, it is bubbled up by this\r\n     * function (like regular Solidity function calls).\r\n     *\r\n     * Returns the raw returned data. To convert to the expected return value,\r\n     * use https://solidity.readthedocs.io/en/latest/units-and-global-variables.html?highlight=abi.decode#abi-encoding-and-decoding-functions[`abi.decode`].\r\n     *\r\n     * Requirements:\r\n     *\r\n     * - `target` must be a contract.\r\n     * - calling `target` with `data` must not revert.\r\n     *\r\n     * _Available since v3.1._\r\n     */\r\n    function functionCall(address target, bytes memory data) internal returns (bytes memory) {\r\n        return functionCall(target, data, \"Address: low-level call failed\");\r\n    }\r\n\r\n    /**\r\n     * @dev Same as {xref-Address-functionCall-address-bytes-}[`functionCall`], but with\r\n     * `errorMessage` as a fallback revert reason when `target` reverts.\r\n     *\r\n     * _Available since v3.1._\r\n     */\r\n    function functionCall(\r\n        address target,\r\n        bytes memory data,\r\n        string memory errorMessage\r\n    ) internal returns (bytes memory) {\r\n        return functionCallWithValue(target, data, 0, errorMessage);\r\n    }\r\n\r\n    /**\r\n     * @dev Same as {xref-Address-functionCall-address-bytes-}[`functionCall`],\r\n     * but also transferring `value` wei to `target`.\r\n     *\r\n     * Requirements:\r\n     *\r\n     * - the calling contract must have an ETH balance of at least `value`.\r\n     * - the called Solidity function must be `payable`.\r\n     *\r\n     * _Available since v3.1._\r\n     */\r\n    function functionCallWithValue(\r\n        address target,\r\n        bytes memory data,\r\n        uint256 value\r\n    ) internal returns (bytes memory) {\r\n        return functionCallWithValue(target, data, value, \"Address: low-level call with value failed\");\r\n    }\r\n\r\n    /**\r\n     * @dev Same as {xref-Address-functionCallWithValue-address-bytes-uint256-}[`functionCallWithValue`], but\r\n     * with `errorMessage` as a fallback revert reason when `target` reverts.\r\n     *\r\n     * _Available since v3.1._\r\n     */\r\n    function functionCallWithValue(\r\n        address target,\r\n        bytes memory data,\r\n        uint256 value,\r\n        string memory errorMessage\r\n    ) internal returns (bytes memory) {\r\n        require(address(this).balance >= value, \"Address: insufficient balance for call\");\r\n        require(isContract(target), \"Address: call to non-contract\");\r\n\r\n        (bool success, bytes memory returndata) = target.call{value: value}(data);\r\n        return verifyCallResult(success, returndata, errorMessage);\r\n    }\r\n\r\n    /**\r\n     * @dev Same as {xref-Address-functionCall-address-bytes-}[`functionCall`],\r\n     * but performing a static call.\r\n     *\r\n     * _Available since v3.3._\r\n     */\r\n    function functionStaticCall(address target, bytes memory data) internal view returns (bytes memory) {\r\n        return functionStaticCall(target, data, \"Address: low-level static call failed\");\r\n    }\r\n\r\n    /**\r\n     * @dev Same as {xref-Address-functionCall-address-bytes-string-}[`functionCall`],\r\n     * but performing a static call.\r\n     *\r\n     * _Available since v3.3._\r\n     */\r\n    function functionStaticCall(\r\n        address target,\r\n        bytes memory data,\r\n        string memory errorMessage\r\n    ) internal view returns (bytes memory) {\r\n        require(isContract(target), \"Address: static call to non-contract\");\r\n\r\n        (bool success, bytes memory returndata) = target.staticcall(data);\r\n        return verifyCallResult(success, returndata, errorMessage);\r\n    }\r\n\r\n    /**\r\n     * @dev Same as {xref-Address-functionCall-address-bytes-}[`functionCall`],\r\n     * but performing a delegate call.\r\n     *\r\n     * _Available since v3.4._\r\n     */\r\n    function functionDelegateCall(address target, bytes memory data) internal returns (bytes memory) {\r\n        return functionDelegateCall(target, data, \"Address: low-level delegate call failed\");\r\n    }\r\n\r\n    /**\r\n     * @dev Same as {xref-Address-functionCall-address-bytes-string-}[`functionCall`],\r\n     * but performing a delegate call.\r\n     *\r\n     * _Available since v3.4._\r\n     */\r\n    function functionDelegateCall(\r\n        address target,\r\n        bytes memory data,\r\n        string memory errorMessage\r\n    ) internal returns (bytes memory) {\r\n        require(isContract(target), \"Address: delegate call to non-contract\");\r\n\r\n        (bool success, bytes memory returndata) = target.delegatecall(data);\r\n        return verifyCallResult(success, returndata, errorMessage);\r\n    }\r\n\r\n    /**\r\n     * @dev Tool to verifies that a low level call was successful, and revert if it wasn't, either by bubbling the\r\n     * revert reason using the provided one.\r\n     *\r\n     * _Available since v4.3._\r\n     */\r\n    function verifyCallResult(\r\n        bool success,\r\n        bytes memory returndata,\r\n        string memory errorMessage\r\n    ) internal pure returns (bytes memory) {\r\n        if (success) {\r\n            return returndata;\r\n        } else {\r\n            // Look for revert reason and bubble it up if present\r\n            if (returndata.length > 0) {\r\n                // The easiest way to bubble the revert reason is using memory via assembly\r\n\r\n                assembly {\r\n                    let returndata_size := mload(returndata)\r\n                    revert(add(32, returndata), returndata_size)\r\n                }\r\n            } else {\r\n                revert(errorMessage);\r\n            }\r\n        }\r\n    }\r\n}\r\n\r\nabstract contract Context {\r\n    function _msgSender() internal view virtual returns (address) {\r\n      return msg.sender;\r\n    }\r\n\r\n    function _msgData() internal view virtual returns (bytes calldata) {\r\n      return msg.data;\r\n    }\r\n\r\n    function _msgValue() internal view virtual returns (uint256) {\r\n      return msg.value;\r\n    }\r\n}\r\n\r\nabstract contract Ownable is Context {\r\n    address private _owner;\r\n\r\n    event OwnershipTransferred(address indexed previousOwner, address indexed newOwner);\r\n\r\n    /**\r\n     * @dev Initializes the contract setting the deployer as the initial owner.\r\n     */\r\n    constructor() {\r\n        _transferOwnership(_msgSender());\r\n    }\r\n\r\n    /**\r\n     * @dev Returns the address of the current owner.\r\n     */\r\n    function owner() public view virtual returns (address) {\r\n        return _owner;\r\n    }\r\n\r\n    /**\r\n     * @dev Throws if called by any account other than the owner.\r\n     */\r\n    modifier onlyOwner() {\r\n        require(owner() == _msgSender(), \"Ownable: caller is not the owner\");\r\n        _;\r\n    }\r\n\r\n    /**\r\n     * @dev Leaves the contract without owner. It will not be possible to call\r\n     * `onlyOwner` functions anymore. Can only be called by the current owner.\r\n     *\r\n     * NOTE: Renouncing ownership will leave the contract without an owner,\r\n     * thereby removing any functionality that is only available to the owner.\r\n     */\r\n    function renounceOwnership() public virtual onlyOwner {\r\n        _transferOwnership(address(0));\r\n    }\r\n\r\n    /**\r\n     * @dev Transfers ownership of the contract to a new account (`newOwner`).\r\n     * Can only be called by the current owner.\r\n     */\r\n    function transferOwnership(address newOwner) public virtual onlyOwner {\r\n        require(newOwner != address(0), \"Ownable: new owner is the zero address\");\r\n        _transferOwnership(newOwner);\r\n    }\r\n\r\n    /**\r\n     * @dev Transfers ownership of the contract to a new account (`newOwner`).\r\n     * Internal function without access restriction.\r\n     */\r\n    function _transferOwnership(address newOwner) internal virtual {\r\n        address oldOwner = _owner;\r\n        _owner = newOwner;\r\n        emit OwnershipTransferred(oldOwner, newOwner);\r\n    }\r\n}\r\n\r\ninterface IERC20 {\r\n    /**\r\n     * @dev Returns the amount of tokens in existence.\r\n     */\r\n    function totalSupply() external view returns (uint256);\r\n\r\n    /**\r\n     * @dev Returns the amount of tokens owned by `account`.\r\n     */\r\n    function balanceOf(address account) external view returns (uint256);\r\n\r\n    /**\r\n     * @dev Moves `amount` tokens from the caller's account to `to`.\r\n     *\r\n     * Returns a boolean value indicating whether the operation succeeded.\r\n     *\r\n     * Emits a {Transfer} event.\r\n     */\r\n    function transfer(address to, uint256 amount) external returns (bool);\r\n\r\n    /**\r\n     * @dev Returns the remaining number of tokens that `spender` will be\r\n     * allowed to spend on behalf of `owner` through {transferFrom}. This is\r\n     * zero by default.\r\n     *\r\n     * This value changes when {approve} or {transferFrom} are called.\r\n     */\r\n    function allowance(address owner, address spender) external view returns (uint256);\r\n\r\n    /**\r\n     * @dev Sets `amount` as the allowance of `spender` over the caller's tokens.\r\n     *\r\n     * Returns a boolean value indicating whether the operation succeeded.\r\n     *\r\n     * IMPORTANT: Beware that changing an allowance with this method brings the risk\r\n     * that someone may use both the old and the new allowance by unfortunate\r\n     * transaction ordering. One possible solution to mitigate this race\r\n     * condition is to first reduce the spender's allowance to 0 and set the\r\n     * desired value afterwards:\r\n     * https://github.com/ethereum/EIPs/issues/20#issuecomment-263524729\r\n     *\r\n     * Emits an {Approval} event.\r\n     */\r\n    function approve(address spender, uint256 amount) external returns (bool);\r\n\r\n    /**\r\n     * @dev Moves `amount` tokens from `from` to `to` using the\r\n     * allowance mechanism. `amount` is then deducted from the caller's\r\n     * allowance.\r\n     *\r\n     * Returns a boolean value indicating whether the operation succeeded.\r\n     *\r\n     * Emits a {Transfer} event.\r\n     */\r\n    function transferFrom(\r\n        address from,\r\n        address to,\r\n        uint256 amount\r\n    ) external returns (bool);\r\n\r\n    /**\r\n     * @dev Emitted when `value` tokens are moved from one account (`from`) to\r\n     * another (`to`).\r\n     *\r\n     * Note that `value` may be zero.\r\n     */\r\n    event Transfer(address indexed from, address indexed to, uint256 value);\r\n\r\n    /**\r\n     * @dev Emitted when the allowance of a `spender` for an `owner` is set by\r\n     * a call to {approve}. `value` is the new allowance.\r\n     */\r\n    event Approval(address indexed owner, address indexed spender, uint256 value);\r\n}\r\n\r\ninterface IERC20Metadata is IERC20 {\r\n    /**\r\n     * @dev Returns the name of the token.\r\n     */\r\n    function name() external view returns (string memory);\r\n\r\n    /**\r\n     * @dev Returns the symbol of the token.\r\n     */\r\n    function symbol() external view returns (string memory);\r\n\r\n    /**\r\n     * @dev Returns the decimals places of the token.\r\n     */\r\n    function decimals() external view returns (uint8);\r\n}\r\n\r\nlibrary SafeERC20 {\r\n    using Address for address;\r\n\r\n    function safeTransfer(\r\n        IERC20 token,\r\n        address to,\r\n        uint256 value\r\n    ) internal {\r\n        _callOptionalReturn(token, abi.encodeWithSelector(token.transfer.selector, to, value));\r\n    }\r\n\r\n    function safeTransferFrom(\r\n        IERC20 token,\r\n        address from,\r\n        address to,\r\n        uint256 value\r\n    ) internal {\r\n        _callOptionalReturn(token, abi.encodeWithSelector(token.transferFrom.selector, from, to, value));\r\n    }\r\n\r\n    /**\r\n     * @dev Deprecated. This function has issues similar to the ones found in\r\n     * {IERC20-approve}, and its usage is discouraged.\r\n     *\r\n     * Whenever possible, use {safeIncreaseAllowance} and\r\n     * {safeDecreaseAllowance} instead.\r\n     */\r\n    function safeApprove(\r\n        IERC20 token,\r\n        address spender,\r\n        uint256 value\r\n    ) internal {\r\n        // safeApprove should only be called when setting an initial allowance,\r\n        // or when resetting it to zero. To increase and decrease it, use\r\n        // 'safeIncreaseAllowance' and 'safeDecreaseAllowance'\r\n        require(\r\n            (value == 0) || (token.allowance(address(this), spender) == 0),\r\n            \"SafeERC20: approve from non-zero to non-zero allowance\"\r\n        );\r\n        _callOptionalReturn(token, abi.encodeWithSelector(token.approve.selector, spender, value));\r\n    }\r\n\r\n    function safeIncreaseAllowance(\r\n        IERC20 token,\r\n        address spender,\r\n        uint256 value\r\n    ) internal {\r\n        uint256 newAllowance = token.allowance(address(this), spender) + value;\r\n        _callOptionalReturn(token, abi.encodeWithSelector(token.approve.selector, spender, newAllowance));\r\n    }\r\n\r\n    function safeDecreaseAllowance(\r\n        IERC20 token,\r\n        address spender,\r\n        uint256 value\r\n    ) internal {\r\n        unchecked {\r\n            uint256 oldAllowance = token.allowance(address(this), spender);\r\n            require(oldAllowance >= value, \"SafeERC20: decreased allowance below zero\");\r\n            uint256 newAllowance = oldAllowance - value;\r\n            _callOptionalReturn(token, abi.encodeWithSelector(token.approve.selector, spender, newAllowance));\r\n        }\r\n    }\r\n\r\n    /**\r\n     * @dev Imitates a Solidity high-level call (i.e. a regular function call to a contract), relaxing the requirement\r\n     * on the return value: the return value is optional (but if data is returned, it must not be false).\r\n     * @param token The token targeted by the call.\r\n     * @param data The call data (encoded using abi.encode or one of its variants).\r\n     */\r\n    function _callOptionalReturn(IERC20 token, bytes memory data) private {\r\n        // We need to perform a low level call here, to bypass Solidity's return data size checking mechanism, since\r\n        // we're implementing it ourselves. We use {Address.functionCall} to perform this call, which verifies that\r\n        // the target address contains contract code and also asserts for success in the low-level call.\r\n\r\n        bytes memory returndata = address(token).functionCall(data, \"SafeERC20: low-level call failed\");\r\n        if (returndata.length > 0) {\r\n            // Return data is optional\r\n            require(abi.decode(returndata, (bool)), \"SafeERC20: ERC20 operation did not succeed\");\r\n        }\r\n    }\r\n}\r\n\r\nlibrary TransferHelper {\r\n    function safeApprove(address token, address to, uint value) internal {\r\n        (bool success, bytes memory data) = token.call(abi.encodeWithSelector(0x095ea7b3, to, value));\r\n        require(success && (data.length == 0 || abi.decode(data, (bool))), \"MultiSender: APPROVE_FAILED\");\r\n    }\r\n\r\n    function safeTransfer(address token, address to, uint value) internal {\r\n        (bool success, bytes memory data) = token.call(abi.encodeWithSelector(0xa9059cbb, to, value));\r\n        require(success && (data.length == 0 || abi.decode(data, (bool))), \"MultiSender: TRANSFER_FAILED\");\r\n    }\r\n\r\n    function safeTransferFrom(address token, address from, address to, uint value) internal {\r\n        (bool success, bytes memory data) = token.call(abi.encodeWithSelector(0x23b872dd, from, to, value));\r\n        require(success && (data.length == 0 || abi.decode(data, (bool))), \"MultiSender: TRANSFER_FROM_FAILED\");\r\n    }\r\n    \r\n    // sends ETH or an erc20 token\r\n    function safeTransferBaseToken(address token, address payable to, uint value, bool isERC20) internal {\r\n        if (!isERC20) {\r\n            to.transfer(value);\r\n        } else {\r\n            (bool success, bytes memory data) = token.call(abi.encodeWithSelector(0xa9059cbb, to, value));\r\n            require(success && (data.length == 0 || abi.decode(data, (bool))), \"MultiSender: TRANSFER_FAILED\");\r\n        }\r\n    }\r\n}\r\n\r\ncontract MultiSender is Ownable {\r\n  using Address for address;\r\n  using SafeERC20 for IERC20;\r\n\r\n  struct TokenInfo {\r\n    string name;\r\n    string symbol;\r\n    uint256 decimal;\r\n  }\r\n\r\n  address public tokenAddressForDistribution;\r\n  TokenInfo public tokenInfo;\r\n\r\n  uint256 private _serviceFee = 0.25 ether;\r\n\r\n  address[] private _arrayInitiator;\r\n  address[] private _receivers;\r\n  mapping(address => uint256) public multiSendingInfo;\r\n\r\n  constructor () {}\r\n\r\n  /** \r\n   * @dev Send tokens to multiple address with amount passed in amounts_ array\r\n   * from the contract. Tokens need to be deposited to the contract to be sent\r\n   * by the contract.\r\n   *\r\n   * @param tokenAddress_ Token address to be sent\r\n   * @param receivers_ Address list to receive token specified by the address\r\n   * @param amounts_ Token amounts to be sent to each addresses\r\n   */\r\n  function multiSendTokenFromContractAt(address tokenAddress_, address[] memory receivers_, uint256[] memory amounts_) public onlyOwner {\r\n    require(tokenAddress_ != address(0), \"MultiSender: Address can't be zero address\");\r\n    require(tokenAddress_ != address(this), \"MultiSender: Can't set as self address\");\r\n    require(IERC20(tokenAddress_).balanceOf(address(this)) > 0, \"MultiSender: Insufficient tokens to send\");\r\n    require(receivers_.length > 0, \"MultiSender: Receiver length should be greater than zero\");\r\n    require(receivers_.length == amounts_.length, \"MultiSender: Receiver length should be same as amounts length\");\r\n\r\n    uint256 totalSupplyToDistribute = 0;\r\n    for (uint256 i = 0; i < receivers_.length; i++) {\r\n      totalSupplyToDistribute += amounts_[i];\r\n    }\r\n\r\n    require(IERC20(tokenAddress_).balanceOf(address(this)) >= totalSupplyToDistribute, \"MultiSender: Insufficient tokens to send\");\r\n\r\n    for (uint256 i = 0; i < receivers_.length; i++) {\r\n      TransferHelper.safeTransfer(address(tokenAddressForDistribution), address(receivers_[i]), amounts_[i]);\r\n    }\r\n  }\r\n\r\n  /** \r\n   * @dev Send tokens to multiple address with amount passed in amounts_ array\r\n   * from the wallet linked to the contract. Tokens need to be deposited to th\r\n   * e contract to be sent by the contract.\r\n   *\r\n   * [===== IMPORTANT =====]\r\n   * Need to increase allowance between wallet and the contract from the token\r\n   * smart contract\r\n   *\r\n   * @param tokenAddress_ Token address to be sent\r\n   * @param receivers_ Address list to receive token specified by the address\r\n   * @param amounts_ Token amounts to be sent to each addresses\r\n   */\r\n  function multiSendTokensFromWalletAt(address tokenAddress_, address[] memory receivers_, uint256[] memory amounts_) public {\r\n    require(_msgValue() > _serviceFee, \"MultiSender: Must pay appropreate fee\");\r\n    require(tokenAddress_ != address(0), \"MultiSender: Address can't be zero address\");\r\n    require(tokenAddress_ != address(this), \"MultiSender: Can't set as self address\");\r\n    require(IERC20(tokenAddress_).balanceOf(_msgSender()) > 0, \"MultiSender: Insufficient tokens to send\");\r\n    require(receivers_.length > 0, \"MultiSender: Receiver length should be greater than zero\");\r\n    require(receivers_.length == amounts_.length, \"MultiSender: Receiver length should be same as amounts length\");\r\n\r\n    uint256 totalSupplyToDistribute = 0;\r\n    for (uint256 i = 0; i < receivers_.length; i++) {\r\n      totalSupplyToDistribute += amounts_[i];\r\n    }\r\n\r\n    require(IERC20(tokenAddress_).balanceOf(_msgSender()) >= totalSupplyToDistribute, \"MultiSender: Insufficient tokens to send\");\r\n\r\n    for (uint256 i = 0; i < receivers_.length; i++) {\r\n      TransferHelper.safeTransferFrom(address(tokenAddressForDistribution), address(_msgSender()), address(receivers_[i]), amounts_[i]);\r\n    }\r\n  }\r\n\r\n  function addReceiver(address to_, uint256 amount_) public onlyOwner {\r\n    require(to_ != address(0), \"MultiSender: Can't send to zero address\");\r\n    require(to_ != address(this), \"MultiSender: Can't send to self address\");\r\n    require(amount_ > 0, \"MultiSender: Amount should be greater than zero\");\r\n\r\n    _receivers.push(to_);\r\n    multiSendingInfo[to_] = amount_;\r\n  }\r\n\r\n  function addReceivers(address[] memory receivers_, uint256[] memory amounts_) public onlyOwner {\r\n    require(receivers_.length > 0, \"MultiSender: Address list should be greater than zero\");\r\n    require(receivers_.length == amounts_.length, \"MultiSender: Need to have same length of tos and amounts\");\r\n\r\n    for (uint256 i = 0; i < receivers_.length; i++) {\r\n      _receivers.push(receivers_[i]);\r\n      multiSendingInfo[receivers_[i]] = amounts_[i];\r\n    }\r\n  }\r\n\r\n  function initAddressList() public onlyOwner {\r\n    // This overwrite is not for gas saving solution\r\n    _receivers = _arrayInitiator;\r\n  }\r\n\r\n  function distributeTokens() public onlyOwner {\r\n    require(_receivers.length > 0, \"MultiSender: Don't have addresses to send tokens\");\r\n\r\n    for (uint256 i = 0; i < _receivers.length; i++) {\r\n      TransferHelper.safeTransfer(address(tokenAddressForDistribution), address(_receivers[i]), multiSendingInfo[_receivers[i]]);\r\n    }\r\n  }\r\n\r\n  function setTokenForDistribution (address newAddress_) public onlyOwner {\r\n    require(newAddress_ != address(0), \"MultiSender: Address can't be zero address\");\r\n    require(newAddress_ != address(this), \"MultiSender: Can't set as self address\");\r\n    \r\n    tokenAddressForDistribution = newAddress_;\r\n\r\n    tokenInfo.name = IERC20Metadata(tokenAddressForDistribution).name();\r\n    tokenInfo.symbol = IERC20Metadata(tokenAddressForDistribution).symbol();\r\n    tokenInfo.decimal = IERC20Metadata(tokenAddressForDistribution).decimals();\r\n  }\r\n\r\n  function getTokenSupplyForDistrubution () public view returns (uint256) {\r\n    return IERC20(tokenAddressForDistribution).balanceOf(address(this));\r\n  }\r\n\r\n  function serviceFee() public view returns (uint256) {\r\n    return _serviceFee;\r\n  }\r\n\r\n  function setServiceFee(uint256 fee_) public onlyOwner {\r\n    require(fee_ < 1 ether, \"MultiSender: Too greedy\");\r\n\r\n    _serviceFee = fee_;\r\n  }\r\n\r\n  function reClaimCoin (address to_) public onlyOwner {\r\n      require(to_ != address(0), \"MultiSender: claim to the zero address\");\r\n\r\n      payable(to_).transfer(address(this).balance);\r\n  }\r\n\r\n  function reClaimToken (address token_, address to_) public onlyOwner {\r\n      require(to_ != address(0), \"MultiSender: claim to the zero address\");\r\n      require(token_ != address(0), \"MultiSender: claim to the zero address\");\r\n      require(token_ != address(this), \"MultiSender: self withdraw\");\r\n\r\n      uint256 tokenBalance = IERC20(token_).balanceOf(address(this));\r\n      IERC20(token_).transfer(to_, tokenBalance);\r\n  }\r\n}",
  "sourcePath": "F:\\Cory_Career\\SafuTrendz\\multisender-safutrendz-website-contract\\contracts\\multisender.sol",
  "compiler": {
    "name": "solc",
    "version": "0.8.12+commit.f00d7308.Emscripten.clang"
  },
  "schemaVersion": "3.4.3",
  "updatedAt": "2022-03-15T18:52:43.445Z",
  "devdoc": {
    "kind": "dev",
    "methods": {
      "multiSendTokenFromContractAt(address,address[],uint256[])": {
        "details": "Send tokens to multiple address with amount passed in amounts_ array from the contract. Tokens need to be deposited to the contract to be sent by the contract.",
        "params": {
          "amounts_": "Token amounts to be sent to each addresses",
          "receivers_": "Address list to receive token specified by the address",
          "tokenAddress_": "Token address to be sent"
        }
      },
      "multiSendTokensFromWalletAt(address,address[],uint256[])": {
        "details": "Send tokens to multiple address with amount passed in amounts_ array from the wallet linked to the contract. Tokens need to be deposited to th e contract to be sent by the contract. [===== IMPORTANT =====] Need to increase allowance between wallet and the contract from the token smart contract",
        "params": {
          "amounts_": "Token amounts to be sent to each addresses",
          "receivers_": "Address list to receive token specified by the address",
          "tokenAddress_": "Token address to be sent"
        }
      },
      "owner()": {
        "details": "Returns the address of the current owner."
      },
      "renounceOwnership()": {
        "details": "Leaves the contract without owner. It will not be possible to call `onlyOwner` functions anymore. Can only be called by the current owner. NOTE: Renouncing ownership will leave the contract without an owner, thereby removing any functionality that is only available to the owner."
      },
      "transferOwnership(address)": {
        "details": "Transfers ownership of the contract to a new account (`newOwner`). Can only be called by the current owner."
      }
    },
    "version": 1
  },
  "userdoc": {
    "kind": "user",
    "methods": {},
    "version": 1
  }
}